{
  "_format": "hh-sol-artifact-1",
  "contractName": "LoyaltyClub",
  "sourceName": "contracts/LoyaltyClub.sol",
  "abi": [
    {
      "inputs": [
        {
          "internalType": "address",
          "name": "_seller",
          "type": "address"
        }
      ],
      "stateMutability": "nonpayable",
      "type": "constructor"
    },
    {
      "inputs": [],
      "name": "amount",
      "outputs": [
        {
          "internalType": "uint256",
          "name": "",
          "type": "uint256"
        }
      ],
      "stateMutability": "view",
      "type": "function"
    },
    {
      "inputs": [],
      "name": "buyer",
      "outputs": [
        {
          "internalType": "address",
          "name": "",
          "type": "address"
        }
      ],
      "stateMutability": "view",
      "type": "function"
    },
    {
      "inputs": [],
      "name": "calculateTotalAmount",
      "outputs": [
        {
          "internalType": "uint256",
          "name": "",
          "type": "uint256"
        }
      ],
      "stateMutability": "view",
      "type": "function"
    },
    {
      "inputs": [],
      "name": "checkIfPaid",
      "outputs": [
        {
          "internalType": "bool",
          "name": "",
          "type": "bool"
        }
      ],
      "stateMutability": "view",
      "type": "function"
    },
    {
      "inputs": [],
      "name": "getPrice",
      "outputs": [
        {
          "internalType": "uint256",
          "name": "",
          "type": "uint256"
        }
      ],
      "stateMutability": "view",
      "type": "function"
    },
    {
      "inputs": [],
      "name": "isPaid",
      "outputs": [
        {
          "internalType": "bool",
          "name": "",
          "type": "bool"
        }
      ],
      "stateMutability": "view",
      "type": "function"
    },
    {
      "inputs": [
        {
          "internalType": "uint256",
          "name": "_amount",
          "type": "uint256"
        }
      ],
      "name": "pay",
      "outputs": [],
      "stateMutability": "payable",
      "type": "function"
    },
    {
      "inputs": [],
      "name": "releasePayment",
      "outputs": [],
      "stateMutability": "nonpayable",
      "type": "function"
    },
    {
      "inputs": [],
      "name": "seller",
      "outputs": [
        {
          "internalType": "address",
          "name": "",
          "type": "address"
        }
      ],
      "stateMutability": "view",
      "type": "function"
    }
  ],
  "bytecode": "0x608060405234801561001057600080fd5b506040516106f63803806106f683398101604081905261002f91610071565b600080546001600160a01b039092166001600160a01b03199283161790556003805490911673d4a33860578de61dbabdc8bfdb98fd742fa7028e17905561009f565b600060208284031215610082578081fd5b81516001600160a01b0381168114610098578182fd5b9392505050565b610648806100ae6000396000f3fe6080604052600436106100865760003560e01c806398d5fdca1161005957806398d5fdca1461010f578063aa8c217c14610124578063c290d69114610139578063d116c8c41461014e578063ead10f311461016357610086565b806308551a531461008b5780632064f50e146100b6578063209ebc08146100d85780637150d8ae146100fa575b600080fd5b34801561009757600080fd5b506100a0610178565b6040516100ad91906104b8565b60405180910390f35b3480156100c257600080fd5b506100cb610187565b6040516100ad91906105be565b3480156100e457600080fd5b506100ed6101a2565b6040516100ad91906104cc565b34801561010657600080fd5b506100a06101b2565b34801561011b57600080fd5b506100cb6101c1565b34801561013057600080fd5b506100cb610279565b61014c610147366004610451565b61027f565b005b34801561015a57600080fd5b5061014c6102c4565b34801561016f57600080fd5b506100ed61040f565b6000546001600160a01b031681565b600061019d6101946101c1565b6001549061041f565b905090565b600254600160a01b900460ff1681565b6002546001600160a01b031681565b600080600360009054906101000a90046001600160a01b03166001600160a01b031663feaf968c6040518163ffffffff1660e01b815260040160a06040518083038186803b15801561021257600080fd5b505afa158015610226573d6000803e3d6000fd5b505050506040513d601f19601f8201168201806040525081019061024a9190610469565b5050509150506000811361019d5760405162461bcd60e51b815260040161027090610560565b60405180910390fd5b60015481565b80341461029e5760405162461bcd60e51b81526004016102709061050e565b6001556002805460ff60a01b196001600160a01b0319909116331716600160a01b179055565b600254600160a01b900460ff166102ed5760405162461bcd60e51b8152600401610270906104d7565b60035460408051633fabe5a360e21b815290516000926001600160a01b03169163feaf968c9160048083019260a0929190829003018186803b15801561033257600080fd5b505afa158015610346573d6000803e3d6000fd5b505050506040513d601f19601f8201168201806040525081019061036a9190610469565b505050915050600081136103905760405162461bcd60e51b815260040161027090610560565b60006305f5e100826001546103a591906105e7565b6103af91906105c7565b9050804710156103d15760405162461bcd60e51b815260040161027090610587565b600080546040516001600160a01b039091169183156108fc02918491818181858888f1935050505015801561040a573d6000803e3d6000fd5b505050565b600254600160a01b900460ff1690565b600061042b82846105e7565b9392505050565b805169ffffffffffffffffffff8116811461044c57600080fd5b919050565b600060208284031215610462578081fd5b5035919050565b600080600080600060a08688031215610480578081fd5b61048986610432565b94506020860151935060408601519250606086015191506104ac60808701610432565b90509295509295909350565b6001600160a01b0391909116815260200190565b901515815260200190565b6020808252601d908201527f5061796d656e7420686173206e6f74206265656e206d61646520796574000000604082015260600190565b60208082526032908201527f5061796d656e7420616d6f756e742073686f756c6420626520657175616c20746040820152711bc81d1a19481d1bdd185b08185b5bdd5b9d60721b606082015260800190565b6020808252600d908201526c496e76616c696420707269636560981b604082015260600190565b6020808252601d908201527f496e73756666696369656e7420636f6e74726163742062616c616e6365000000604082015260600190565b90815260200190565b6000826105e257634e487b7160e01b81526012600452602481fd5b500490565b600081600019048311821515161561060d57634e487b7160e01b81526011600452602481fd5b50029056fea2646970667358221220331fd241d400f96803523419aef2cf7f4ceb351252323e50260759fcae14fb5964736f6c63430008000033",
  "linkReferences": {},
  "deployedLinkReferences": {}
}